:100000000C94BC010C9403020C9403020C940302A4
:100010000C9403020C9403020C9403020C9403024C
:100020000C9403020C9403020C943C1B0C940F1CC4
:100030000C94AF120C9403020C9403020C94030270
:100040000C9403020C9403020C9403020C9403021C
:100050000C9403020C9417130C9403020C940302E7
:100060000C9403020C9403020C9403020C940302FC
:100070000C9403020C9403020C9403020C940302EC
:100080000C9403020C9403020C9403020C940302DC
:100090000C9403020C9403020C9403020C940302CC
:1000A0000C9403020C9403020C940302E1001D0063
:1000B0001B00500051004F00520029002800010091
:1000C0000100010001000100010001000100010028
:1000D0000100010001000100010001000100010018
:1000E0000100010001000100010001000100010008
:1000F00001000100010001000100010001000100F8
:1001000001000100010001000100010001000100E7
:1001100001000100010001000100010001000100D7
:1001200001000100010001000100010001000100C7
:1001300001000100010001000100010001000100B7
:1001400001000100010001000100010001000100A7
:100150000100010001000100010001000100010097
:100160000100010001000100010001000100010087
:100170000100010001000100010001000100010077
:100180000100010001000100010001000100010067
:100190000100010001000100010001000100010057
:1001A0000100010001000100010001000100010047
:1001B0000100010001000100010001000100010037
:1001C00001000100010001000100010012036B00A9
:1001D0006500790062006F00610072006400000039
:1001E000160371006D006B006200750069006C0001
:1001F00064006500720000000403090409026D0038
:10020000040100A0FA090400000103010100092112
:10021000110100012240000705810308000A0904BA
:1002200001000103010200092111010001224D001A
:100230000705820308000A09040200010300000008
:100240000921110100012236000705830308000A75
:10025000090403000103000000092111010001222B
:10026000390007058403200001120110010000007D
:1002700008EDFE606001000102000105010906A110
:1002800001050719E029E715002501950875018189
:100290000205081901290595057501910295017559
:1002A0000391010507190029F71500250195F87537
:1002B000018102C005010980A10185021601002605
:1002C00003001A81002A8300751095018100C00582
:1002D0000C0901A1018503160100269C021A0100E8
:1002E0002A9C02751095018100C005010902A10137
:1002F0000901A10005091901290515002501950528
:1003000075018102950175038101050109300931EB
:100310001581257F95027508810609381581257F8D
:10032000950175088106050C0A38021581257F950F
:100330000175088106C0C005010906A1010507195C
:10034000E029E715002501950875018102950175E1
:100350000881010508190129059505750191029586
:1003600001750391010507190029FF150026FF00FB
:10037000950675088100C00011241FBECFEFDAE09A
:10038000DEBFCDBF04B603FE27C08091020290916C
:100390000302A0910402B09105028730904BA74060
:1003A000B04BD1F410920202109203021092040298
:1003B0001092050214BE84B7877F84BF0FB6F894ED
:1003C000A895809160008861809360001092600021
:1003D0000FBEE0E0F8E3099511E0A0E0B1E0E6EA45
:1003E000FEE302C005900D92A033B107D9F722E0D9
:1003F000A0E3B1E001C01D92A230B207E1F70E9474
:100400008B180C94511F0C94000090E080E008952C
:100410000895089581E00895089581E008950C9469
:100420000A020E942E0B2FEF84E39CE021508040B3
:100430009040E1F700C000000C943C13FF920F9332
:100440001F93CF93DF938C01FC01C081D1818091F8
:10045000520181113FC082818823B9F1CE010E94EF
:100460009510F82E682FCE010E943B10BE018F2DF3
:100470000E946503EC01B8010E940F02882309F471
:100480004AC0B801CE010E947705882309F443C011
:10049000C531F0E7DF0718F5C23080E7D80708F06C
:1004A0004BC0C115E0E7DE0789F1C130D047D1F17B
:1004B00081E08093320180933301C801DF91CF91B5
:1004C0001F910F91FF900C940D02CE010E946A10B3
:1004D000F82ECCCFCE010E949510BE01C9CFCC33EF
:1004E00080E7D80709F4ACC0CD33D04709F7F8014D
:1004F0008281882309F4CBC0109233010E94E1125B
:10050000909331018093300180E2A7C0F80182818D
:1005100081110E94110280E0DF91CF911F910F9114
:10052000FF900895F80182818823A9F38091C20188
:1005300081608093C201EFCFF8018281882309F4A2
:10054000BCCF0E944612811102C00E942C120E9450
:10055000631290E09093F4018093F301FE01E35065
:10056000F0478091F3018160E231F105C8F4E55470
:10057000FD4F0C94011FCD02D902DD02E102E5021C
:10058000E902ED02F102F502F902FD0201030503A1
:1005900009030D031103150319038091F301826010
:1005A0008093F3018091F3010E9467120E942E0B49
:1005B000B2CF8091F3018460F3CF8091F301886022
:1005C000EFCF8091F3018061EBCF8091F3018062E6
:1005D000E7CF8091F3018064E3CF8091F3018068DD
:1005E000DFCF8091F3018460EACF8091F3018E7FA9
:1005F000D7CF8091F3018D7FD3CF8091F3018B7F93
:10060000CFCF8091F301877FCBCF8091F3018F7E95
:10061000C7CF8091F3018F7DC3CF8091F3018F7B92
:10062000BFCF8091F3018F77BBCF8091F3018B7F98
:10063000EACF9091F301892F97FB87F98058B0CFCB
:10064000F8018281882361F0109232010E94E11248
:10065000909331018093300182E00E94B8085BCF13
:100660008091320181110FC0809130019091310150
:100670000E94ED12883C910530F486E20E948D07BD
:1006800086E20E94690882E00E94BF0844CF809100
:10069000330181110FC080913001909131010E948E
:1006A000ED12883C910530F487E20E948D0787E2C5
:1006B0000E94690880E2E8CF0C94C6050C94C80536
:1006C0000C940C020C9460030895E62F272F280F3A
:1006D0003327331FC90129E0289FB001299F700DDE
:1006E0001124E60FF72FF11DEE0FFF1FE455FF4F0A
:1006F000859194910895FC01EE0FFF1FE453FE4F86
:100700008591949108950E9465030E94F6048115D5
:1007100020E4920708F08DC0811540E3940708F0AB
:10072000E8C0803E910508F071C0803C910508F05A
:10073000CCC0883A910580F4853A910508F0CAC08A
:100740008130910509F46EC020F08430910508F0E5
:1007500069C090E080E008958D3B9105D0F7883A1C
:10076000910509F404C1893A910509F403C18A3A53
:10077000910509F402C18B3A910509F401C18C3A43
:10078000910509F400C18B3B910509F4FFC08C3B36
:10079000910509F4FEC08D3A910509F4FDC0803B36
:1007A000910509F4FCC08E3A910509F4FBC08F3A1B
:1007B000910509F4FAC0813B910509F4F9C0823B27
:1007C000910509F4F8C0833B910509F4F7C0843B17
:1007D000910509F4F6C0853B910509F4F5C0863B07
:1007E000910509F4F4C0873B910509F4F3C0883BF7
:1007F000910509F4F2C0893B910509F4F1C08A3BE7
:10080000910509F4F0C080E094E408958F3F9105CC
:1008100009F048F4803F910508F067C0883E9105D3
:1008200008F097CF0895811520E2920708F05FC085
:100830000895811543E5940760F5811522E5920737
:1008400008F062C0811541E5940708F058C0811591
:1008500020E5920708F450C09C0154E03695279596
:100860005A95E1F7922F9370482F437021E030E0C2
:1008700002C0220F331F4A95E2F73C68392B869558
:100880008695837040E2849FC0011124822B932BB4
:100890000895811545E5940750F4811524E59207E4
:1008A00008F446C0982F8827846F906A08958115B0
:1008B00046E5940708F450C09C0130569F702115FE
:1008C000304108F046CF90620895805C91090E9403
:1008D0007B030895853A910509F443C0863A910552
:1008E00009F042C082E890E40895906508959F70F1
:1008F000EECF9927906C08959F70906A0895982F75
:100900008827816F906A0895AC014370552721E0D4
:1009100030E002C0220F331F4A95E2F78695869594
:1009200040E2849FC0011124822B932B9C68089580
:10093000AC014370552721E030E002C0220F331F85
:100940004A95E2F78695869540E2849FC00111247E
:10095000822B932B9A680895982F882788279F7158
:10096000B2CF81E890E4089583E890E4089582EEA0
:1009700094E4089589EE94E408958AEE94E4089549
:1009800085EB94E4089586EB94E4089583EB94E476
:10099000089584EB94E4089587EB94E408958CEC37
:1009A00094E408958DEC94E4089583E895E4089523
:1009B0008AE895E4089582E995E4089584E995E448
:1009C000089581E296E4089583E296E4089584E22E
:1009D00096E4089585E296E4089586E296E4089503
:1009E00087E296E408958AE296E41CCF8238910566
:1009F00049F1B0F48133910509F45CC048F48932BF
:100A0000910509F452C08A32910509F458C008953D
:100A10008533910509F444C08933910599F008950F
:100A2000833E910531F138F4803E910591F0823E8C
:100A30009105B1F00895863E910511F1873E91052B
:100A400041F108952091F3012370C9F080EE90E008
:100A500008952091F30120FF12C089E390E00895EA
:100A60002091F30122FF0BC024FF2EC090E080E014
:100A700008952091F30122FD2AC024FDF7CF0895A7
:100A80002091F30123FFFBCF24FDF0CF87EE90E010
:100A900008952091F30123FFF0CF86EE90E00895B2
:100AA0002091F30125FD16C008952091F30125FD45
:100AB00014C008952091F30126FD12C008952091DD
:100AC000F30126FD10C0089583EE90E0089582EEB4
:100AD00090E0089589E290E0089585E390E008951C
:100AE0008AE290E0089581E390E0C9CF08950F93E2
:100AF0001F93CF938C01FB018281811106C0C1E05D
:100B00008C2FCF911F910F910895C0914101C11178
:100B100025C00531104799F70E94760581E0809342
:100B200041010E94E1129093400180933F01109295
:100B30003401109236011092350110923801109252
:100B4000370110923A011092390110923C01109233
:100B50003B0110923E0110923D01D2CF80913F01A6
:100B6000909140010E94ED12883C910540F68091E1
:100B70003401E82FF0E0EE0FFF1FEB5CFE4F118316
:100B800000838F5F80933401C0E0BACF0C940802D9
:100B90000C940902CF93DF9385B7806885BF85B732
:100BA000806885BF84988C9AA3E1B1E04CE151E064
:100BB000C1E0D0E08D91E82FE295EF70F0E061A107
:100BC0008F709E0101C0220F8A95EAF7922F9095AF
:100BD000962391A382A1822B82A34A175B0751F728
:100BE000109245011092440110924301109242016B
:100BF000DF91CF910C945C03CF93DF93C0914201BE
:100C0000D09143011092430110924201849A8C9832
:100C100080EA8A95F1F7A3E1B1E090E080E061E03D
:100C200070E02D91E22FE295EF70F0E030A140915D
:100C30004201509143012F70FB0101C0EE0F2A9534
:100C4000EAF7232F2E2309F03FC09B01082E02C094
:100C5000220F331F0A94E2F7242B352B30934301E4
:100C600020934201019689309105D9F684988C9A97
:100C70008091420190914301C817D90749F081E062
:100C8000809346010E94E1129093480180934701AE
:100C900080914601882391F080914701909148010D
:100CA0000E94ED12069750F080914201909143010D
:100CB0009093450180934401109246010E945E0387
:100CC00081E0DF91CF91089530E020E0C5CFE82F9B
:100CD000F0E0EE0FFF1FEC5BFE4F808191810895E5
:100CE000089590934E0180934D010895E0914D0138
:100CF000F0914E01309721F00190F081E02D0994A0
:100D000080E00895E0914D01F0914E01309721F07F
:100D10000280F381E02D09940895E0914D01F09156
:100D20004E01309721F00480F581E02D099408955B
:100D300020914B0130914C012817390771F09093A5
:100D40004C0180934B01E0914D01F0914E013097A1
:100D500021F00680F781E02D099408952091490142
:100D600030914A012817390771F090934A01809316
:100D70004901E0914D01F0914E01309721F000843E
:100D8000F185E02D0994089508950C94C4060E94FD
:100D9000D8120E94CA050C94A213CF92DF92EF9250
:100DA000FF920F931F93CF93DF93CDB7DEB72A97B0
:100DB0000FB6F894DEBF0FBECDBF0E94FC0580E0E9
:100DC0000E9467068C0180915001909151016C0145
:100DD000C026D1268017910709F455C08091C20121
:100DE00081FD0E94700690E080E021E030E0790112
:100DF000082E02C0EE0CFF1C0A94E2F7A7014C215A
:100E00005D21452BD9F18E831F820E211F2181E0A8
:100E1000012B09F480E088870E94E1128160782F1D
:100E20009A8789874E815F8168858A850E946307DA
:100E300080915001909151018E259F2590935101F1
:100E4000809350010E9425160E94760690914F01D2
:100E5000891751F10E94760680934F012A960FB6AA
:100E6000F894DEBF0FBECDBFDF91CF911F910F91E0
:100E7000FF90EF90DF90CF900C9462030196893041
:100E8000910509F0B4CF8FEF89838A831B820E947A
:100E9000E1128160782F9D838C8349815A816B8117
:100EA0008D810E946307CECF2A960FB6F894DEBFDD
:100EB0000FBECDBFDF91CF911F910F91FF90EF90AB
:100EC000DF90CF900895CF93DF93CDB7DEB72B9708
:100ED0000FB6F894DEBF0FBECDBF4F83588769872A
:100EE0007A878B871E821D8285E0FE013796DE01A0
:100EF000119601900D928A95E1F749815A816B8193
:100F00007C818D819E812B960FB6F894DEBF0FBE3B
:100F1000CDBFDF91CF910C94E00D882309F4D8C0A8
:100F2000823871F40E94760681FDD2C089E30E9466
:100F300035110E94FD1189E30E9472110C94FD117C
:100F4000833859F40E94760680FDC2C083E50E9472
:100F500035110E94FD1183E5EFCF843859F40E94CA
:100F6000760682FDB5C087E40E9435110E94FD110E
:100F700087E4E2CF9CEF980F913A18F40E94351164
:100F8000DDCF90E2980F983050F4877091E001C067
:100F9000990F8A95EAF7892F0E94B411CFCF9BE56C
:100FA000980F933070F4853A31F0863A39F083E83F
:100FB00090E00C94980681E890E0FBCF82E890E006
:100FC000F8CF98E5980F953108F082C0883A09F477
:100FD00040C0893A09F440C08A3A09F440C08B3ACB
:100FE00009F440C08C3A09F440C08B3B09F440C07E
:100FF0008C3B09F440C08D3A09F440C0803B09F4B1
:1010000040C08E3A09F440C08F3A09F440C0813B99
:1010100009F440C0823B09F440C0833B09F440C05E
:10102000843B09F440C0853B09F440C0863B09F489
:1010300040C0873B09F440C0883B09F440C0893B6D
:1010400009F440C08A3B09F440C090E080E00C9471
:10105000AE0682EE90E0FBCF89EE90E0F8CF8AEE0C
:1010600090E0F5CF85EB90E0F2CF86EB90E0EFCF0C
:1010700083EB90E0ECCF84EB90E0E9CF87EB90E05E
:10108000E6CF8CEC90E0E3CF8DEC90E0E0CF83E80E
:1010900091E0DDCF8AE891E0DACF82E991E0D7CF25
:1010A00084E991E0D4CF81E292E0D1CF83E292E073
:1010B000CECF84E292E0CBCF85E292E0C8CF86E249
:1010C00092E0C5CF87E292E0C2CF8AE292E0BFCF42
:1010D0000895882309F44BC0823871F40E94760683
:1010E00081FF45C089E30E9435110E94FD1189E30B
:1010F0000E9472110C94FD11833859F40E947606F7
:1011000080FF35C083E50E9435110E94FD1183E503
:10111000EFCF843859F40E94760682FF28C087E416
:101120000E9435110E94FD1187E4E2CF9CEF980FD9
:10113000913AF0F290E2980F983050F4877091E075
:1011400001C0990F8A95EAF7892F0E94BA11D2CF70
:101150009BE5980F933020F490E080E00C94980683
:10116000885A853120F490E080E00C94AE06089512
:10117000882321F00E94B4110C94FD110895882356
:1011800021F00E94BA110C94FD1108958F929F9244
:10119000AF92BF92DF92EF92FF920F931F93CF9384
:1011A000DF937C01D62FC72FFC01058102950F70BC
:1011B000128111110E94D3110E942E11D82E882362
:1011C00071F0112321F180E28D0F883000F182E06F
:1011D0000E9418110E942E1191E0D82ED926EC2FD2
:1011E000E295EF70F0E0E950F74F0C94011F090908
:1011F0000909590959099B09B70936093609C2096C
:1012000036095A0A5A0ACD0A36093609D60AD12CA5
:10121000E6CF0C2F0F70C07F11F00295007F1123D5
:10122000A9F0002359F080E28D0F883010F0D11121
:1012300009C0802F0E94B4110E94FD118D2F0E94C1
:101240008D0714C0802F0E94C511F6CF8D2F0E94EC
:101250006908002359F080E28D0F883010F0D11119
:1012600024C0802F0E94BA110E94FD11DD2009F4D4
:10127000A4C10E940B1180FDA0C1F70112820E943F
:1012800005110E947F0FC7010E94E90A0E94051103
:10129000DF91CF911F910F91FF90EF90DF90BF9062
:1012A000AF909F908F900C94A00F802F0E94CB1135
:1012B000DBCFFC2FFF70BF2EC07FC03219F0B2947D
:1012C00080EFB822DD2369F0D13029F1112369F1D3
:1012D000002359F0F701858180FFB0CF8F7085839F
:1012E00004C0112361F0011104C08B2D0E94B808C5
:1012F000BDCF8B2D0130D1F70E94E711B7CF01117F
:1013000006C00E94EA118B2D0E94BF08AFCF0130AA
:1013100009F4ACCFF6CF112321F0063008F0A6CFA8
:10132000E4CF053008F0A2CFEECF002361F38D2F7C
:101330000E9469089BCF8C2F86958695837069F0F3
:10134000813009F093CF8D2F9C2F9370111102C023
:1013500090E080E00E94AE0689CF8D2F9C2F937085
:10136000111102C090E080E00E9498067FCF8D2F7F
:10137000112329F00E942E150E941A1677CF0E9481
:101380009615FACF8C2F837009F047C011116ECFDC
:101390002D2F229526952770220F220F6D2F6F700B
:1013A000862E912CB12CA12C022E04C0880C991CE5
:1013B000AA1CBB1C0A94D2F760E070E0CB01D4FFFA
:1013C0000FC06FE070E080E090E004C0660F771F10
:1013D000881F991F2A95D2F76095709580959095F2
:1013E000C695C695C370C23051F080F4682979293A
:1013F0008A299B29C13071F00E94280F37CF6829B4
:1014000079298A299B290E94440F30CF0E94280FF6
:10141000C501B4010E940C0F29CF8695112311F04C
:101420008C2F8170882309F421CF2D2F22952695AA
:101430002770220F220F6D2F6F70862E912CB12CEA
:10144000A12C022E04C0880C991CAA1CBB1C0A9457
:10145000D2F760E070E0CB01D4FF0FC06FE070E026
:1014600080E090E004C0660F771F881F991F2A95BF
:10147000D2F76095709580959095C695C695C37086
:10148000C23051F080F4682979298A299B29C1301A
:1014900071F00E940210EACE682979298A299B29D5
:1014A0000E941E10E3CE0E940210C501B4010E94EA
:1014B000E60FDCCEE0E2ED0FE53108F062C0F0E0CF
:1014C000EC59F54F0C94011F790A790A790A790AC7
:1014D000790A790A790A790A790A790A790A790AF4
:1014E000790A790A790A790A860A940A9B0AA20A71
:1014F000AC0ADF708C2F8F71112321F00E947F0FB7
:101500008D2FF4CE0E94A00F8D2FFECE112341F01F
:10151000053008F0ABCE8C2F8F710E94C50FA6CE80
:10152000063008F0A3CEF7CF8C2F8F71112339F03E
:101530000E947F0F9BCE8C2F8F711123C9F30E94C5
:10154000A00F94CE112329F08C2F8F710E946A0F67
:101550008DCE0E94600F8ACE112349F0CF718C2F5F
:101560000E947F0F63E08C2F0E940F117FCE81E0DD
:101570000E941811023008F479CE82E00E941811FE
:1015800075CE112329F0011159CE8C2F8F71D0CF38
:101590000111CDCE8C2F8F71D2CF4C2F4F706D2F6C
:1015A000C7010E9405020E94890E60CE4C2F4F7029
:1015B0006D2FC7010E94640359CEDF91CF911F9117
:1015C0000F91FF90EF90DF90BF90AF909F908F9022
:1015D00008950F931F93CF93DF93EC019881898136
:1015E0002B813C81232B39F08F3F19F481E09F3F01
:1015F00019F080E001C081E080FD17C0CE010E949B
:101600001E02882391F0688179818A810E94E1100D
:101610008C010E943A100E94010FB801CE01DF91A7
:10162000CF911F910F910C94C608DF91CF911F911C
:101630000F9108950E94D3110E94E4110E94A611F7
:101640000E94FD110E94C7160E941A1690E080E0C9
:101650000E94980690E080E00C94AE060E94C211B1
:101660000C941A0B0E94D710E92FE295EF70E2500C
:10167000EE30E0F4F0E0E15CF44F0C94011F4D0B10
:101680004D0B560B560B580B560B560B560B4D0B62
:101690004D0B5D0B560B560B5D0B803F19F020F484
:1016A000803E20F481E00895843FE1F380E00895D6
:1016B000803EC0F3813FD1F7F5CF93FB882780F9B7
:1016C0000895CF93DF9300D000D01F92CDB7DEB73F
:1016D0000F900F900F900F900F90DF91CF91089582
:1016E000CF93DF9300D000D000D0CDB7DEB72696E1
:1016F0000FB6F894DEBF0FBECDBFDF91CF91089536
:101700001F93CF93DF93C091530116E08091540152
:101710008C1304C0DF91CF911F910895D0E01C9FDE
:10172000F0011D9FF00D1124EB5AFE4F40815181B5
:1017300062817381848195810E94700B2196C770AC
:10174000E5CF4091850150918601609187017091AC
:1017500088018091890190918A010C94700B1F93EC
:10176000CF93DF9380918A01807FD1F480918701AC
:101770008823B1F080915301D0915401B09185013B
:10178000C09186014091880150918901A1E0BF3F3D
:1017900009F0A0E0BA016095709516E0D81304C076
:1017A000DF91CF911F91089521E04115510521F05E
:1017B0002A2FCF3F09F020E090E020FD38C0189F8D
:1017C000F001199FF00D1124EB5AFE4F21812C13CB
:1017D0002EC020812B132BC02281211128C02381F0
:1017E00034812417350700F1241B350B283C3105C3
:1017F000F0F420918A012F70206120938A0126E065
:10180000289FF001299FF00D1124E65AFE4F808198
:101810008F708061808385E891E00E94E90ADF9102
:10182000CF911F910C94800B260F371FDFCF0196AD
:101830008770B4CFAF92BF92CF92DF92EF92FF92B8
:101840000F931F93CF93DF93CDB7DEB761970FB69A
:10185000F894DEBF0FBECDBF8C0185E0F801DE013C
:101860001D9601900D928A95E1F7D8014C91119641
:101870005C9111971296EC903091850160918601F0
:10188000809188019091890121E0009731F06F3FAC
:1018900019F421E03F3F09F020E0B22FB170BB2ED8
:1018A00020FD80C1F801C380D480A0908701AA20C8
:1018B00009F427C1C816D906D0F1D601A81BB90B67
:1018C000CD01FF24F394883C910508F0F12C809120
:1018D0008A01982F907FFF2009F4CAC0911187C018
:1018E000FE2C651329C0341327C0E11025C08F706A
:1018F000806180938A010E94A10B85E891E00E949B
:10190000E90A80918A01F80185838F2D61960FB6CF
:10191000F894DEBF0FBECDBFDF91CF911F910F9125
:10192000FF90EF90DF90CF90BF90AF90089580959B
:1019300090958C0D9D1DC5CF81E0CD2831F05F3F86
:1019400019F481E04F3F09F080E080FD24C081E080
:101950008E25F82FF170DF2E80FF3FC0809153015C
:101960002091540136E0821318C04D875E878D8523
:101970009E850E94D710292F22952F70223008F1C2
:10198000243030F59F7009F1D80115969C91907F15
:10199000E1F4FB2CBACF80E0DCCF90E0389FF0017F
:1019A000399FF00D1124EB5AFE4F6181561306C08A
:1019B0006081461303C062816E110FC0019687706B
:1019C000D2CF9F7011F0882321F3805E883008F316
:1019D000C8010E94E90ABD2CDCCFEE2009F495CFA6
:1019E00080918A01816080938A01F12C8ECF6513EA
:1019F00012C0341310C0E1100EC0F8018583C80175
:101A00000E94E90A86E0F801A5E8B1E001900D9294
:101A10008A95E1F741C04D875E878D859E850E943E
:101A2000320B882309F4C8C0EE2009F4C5C08091A8
:101A30008A01803270F020918501309186013887CB
:101A40002F831986DB86CA868C87CE0107960E9473
:101A5000E90A86E0F801A5E8B1E001900D928A95C7
:101A6000E1F70E94AF0B0E94A10BFF24F3944DCF2E
:101A7000911115C07C2DD98AC88A6E2D89890E9442
:101A8000610B85E891E00E94E90A86E0E5E8F1E073
:101A9000DF011D928A95E9F70E94A10B36CF6513ED
:101AA00012C0341310C0E1100EC0F8018583C801C4
:101AB0000E94E90AE5E8F1E086E0DF011D928A95DF
:101AC000E9F7FA2C22CF4D875E878D859E850E948F
:101AD000320B882309F470C0EE2009F46DC08091A8
:101AE0008A01803208F4B5CF2091850130918601BA
:101AF0003A8329831B82DD82CC828E83CE010196BC
:101B0000A6CFC816D90638F1F601E81BF90BCF01AC
:101B1000F12C883C910508F03DC0FE2CEE2009F424
:101B20004BC0651326C0341324C080918A0180FD08
:101B300017C0982F907FA1F0D80115968C93159718
:101B4000903F09F45CCF982F907F905F8F70892B26
:101B500015968C9354CF809590958C0D9D1DD8CF64
:101B600086E0F801A5E8B1E001900D928A95E1F7D1
:101B7000CCCE4D875E878D859E850E94320B81116C
:101B800068CF80918A01816080938A01C8010E9498
:101B9000E90ABBCE7C2DD98AC88A6E2D89890E941C
:101BA000610B73CFEE2041F04D875E878D859E855A
:101BB0000E94320B81114DCFC8010E94E90A55CF16
:101BC0001F93CF93DF93CDB7DEB72C970FB6F89462
:101BD000DEBF0FBECDBF4F83588769877A878B875B
:101BE0009C87CE0107960E941A0C882309F442C0F4
:101BF0009F8188852A853B85232B39F08F3F19F4F7
:101C000081E09F3F19F080E001C081E080FD08C0C5
:101C10004F81588569857A858B859C850E94700BDC
:101C200016E08091530190915401891709F467C01F
:101C3000819FC00111248B5A9E4F0E941A0C882349
:101C400009F45DC0E09153011E9FF0011124EB5A8D
:101C5000FE4F4081518162817381848195810E9410
:101C6000700B8091530190E00196877099278093C3
:101C70005301D7CF86E0FE013796DE011196019021
:101C80000D928A95E1F79F8188852A853B85232BD4
:101C900039F08F3F19F481E09F3F19F080E001C0D7
:101CA00081E080FDBDCF2091540130E0C901019653
:101CB00087709927409153014817190699F096E0CB
:101CC000929FD001939FB00D1124AB5ABE4FFE01DD
:101CD000319601900D929A95E1F7809354010E94FC
:101CE000800B9ECF0E942E0B109254011092530134
:101CF00086E0E5E8F1E0DF011D928A95E9F72C9690
:101D00000FB6F894DEBF0FBECDBFDF91CF911F910C
:101D10000895EF92FF920F931F93CF93DF938C015F
:101D2000892B81F0F12CEE24E394E8012196F8014F
:101D30008491843770F4843008F05FC08130B1F052
:101D40008230A1F1DF91CF911F910F91FF90EF9021
:101D50000895853709F44CC008F43DC09CE7980FFE
:101D6000903780F78F770E94690849C00E5F1F4F38
:101D7000FE01849190E2980F983060F48770FE2DF8
:101D800001C0FF0F8A95EAF78F2F0E94D6110E949B
:101D9000FD1102C00E948D078F2D815030F2EFE9B6
:101DA000FFE03197F1F700C00000F7CF0E5F1F4F43
:101DB000FE01849190E2980F983050F48770FE2DC8
:101DC00001C0FF0F8A95EAF78F2F0E94DC11DFCF49
:101DD0000E946908E1CF0E5F1F4FFE01C491C15000
:101DE000D8F28FE99FE00197F1F700C00000F7CF2C
:101DF0000E5F1F4FFE01F490CFCF0E948D078E0122
:101E0000CBCF08956093990170939A0180939B01C1
:101E100090939C010C941A0B0F931F9300919901BE
:101E200010919A0120919B0130919C01DC01CB0122
:101E3000802B912BA22BB32B8093990190939A0125
:101E4000A0939B01B0939C011F910F910C941A0BCE
:101E50000F931F930091990110919A0120919B017A
:101E600030919C01DC01CB0180239123A223B32379
:101E70008093990190939A01A0939B01B0939C0148
:101E80001F910F910C941A0B0F931F9300919901BE
:101E900010919A0120919B0130919C01DC01CB01B2
:101EA00080279127A227B3278093990190939A01C5
:101EB000A0939B01B0939C011F910F910C941A0B5E
:101EC000109295011092960110929701109298012C
:101ED0000C941A0B41E050E060E070E004C0440F45
:101EE000551F661F771F8A95D2F74093950150932F
:101EF000960160939701709398010C941A0B41E03E
:101F000050E060E070E004C0440F551F661F771F6B
:101F10008A95D2F78091950190919601A0919701B1
:101F2000B0919801842B952BA62BB72B809395010C
:101F300090939601A0939701B09398010C941A0B7B
:101F400041E050E060E070E004C0440F551F661FA0
:101F5000771F8A95D2F7409550956095709580913E
:101F6000950190919601A0919701B09198018423D9
:101F70009523A623B7238093950190939601A09370
:101F80009701B09398010C941A0B41E050E060E087
:101F900070E004C0440F551F661F771F8A95D2F763
:101FA0008091950190919601A0919701B09198012F
:101FB00084279527A627B7278093950190939601AC
:101FC000A0939701B09398010C941A0B0F931F9351
:101FD00000919501109196012091970130919801FF
:101FE000DC01CB01802B912BA22BB32B809395018D
:101FF00090939601A0939701B09398011F910F9130
:102000000C941A0B0F931F93009195011091960158
:102010002091970130919801DC01CB01802391231D
:10202000A223B3238093950190939601A0939701E7
:10203000B09398011F910F910C941A0B0F931F935B
:10204000009195011091960120919701309198018E
:10205000DC01CB0180279127A227B327809395012C
:1020600090939601A0939701B09398011F910F91BF
:102070000C941A0B089529E0929F800D1124982F3B
:10208000977071E001C0770F9A95EAF7869586956B
:10209000869525E0829FC001112450E040E0A62FE4
:1020A000B0E0FC01E40FF51FE557FE4F60819D0194
:1020B000042E02C0369527950A94E2F721702195E7
:1020C00026272723262720834F5F5F4F4530510562
:1020D00041F7089529E0929F800D1124982F977061
:1020E00086958695869525E0829FA001112470E053
:1020F00060E080E0FA01E60FF71FE557FE4F208110
:1021000030E0092E02C0369527950A94E2F7217037
:102110003327062E01C0220F0A94EAF7822B6F5F45
:102120007F4F6530710531F70895BF92CF92DF92EE
:10213000EF92FF920F931F93CF93DF938C01C09088
:102140009501D0909601E0909701F09098018091D0
:10215000990190919A01A0919B01B0919C01C82A8C
:10216000D92AEA2AFB2ACFE1D0E0BC2ED701C6014A
:102170000C2E04C0B695A795979587950A94D2F72B
:1021800080FD0EC0219788F7B12C8B2DDF91CF9168
:102190001F910F91FF90EF90DF90CF90BF90089527
:1021A000B8018C2F0E948303019761F3EECFCF9388
:1021B000DF93EC010E949510BE01DF91CF910C944A
:1021C00083031F93CF93DF93EB01909152019923E7
:1021D00031F0CB01DF91CF911F910C94D710882360
:1021E00079F0CB010E949510182F682FCE010E9424
:1021F0003B10BE01812FDF91CF911F910C9483037F
:10220000CB010E946A10182FF4CF80919D01859513
:1022100085958595089580919D018770089598E032
:10222000899F90011124622B60939D010C947F0F74
:1022300090919D018095892380939D01282F27707F
:1022400061F4282F082E000C330B9217130629F087
:102250008595859585950C94A00F089590919D0185
:10226000977081E009F480E008959091120199231C
:10227000E1F09091F30197FF18C0E82FE695E695FD
:10228000E695EF3139F12091000130910101E20F23
:10229000F32FF11D877021E030E001C0220F8A95F5
:1022A000EAF78181822B818308952091000130918A
:1022B0000101F90132969FEF40E05191851751F0ED
:1022C0009F3F19F4511101C0942F4F5F4E31A9F770
:1022D0009F3F09F40895290F311D97FD3A95F901A3
:1022E00082830895909112019923F1F09091F30166
:1022F00097FF1AC0E82FE695E695E695EF3129F1AC
:102300002091000130910101E20FF32FF11D282FE0
:10231000277081E090E001C0880F2A95EAF7809548
:1023200091818923818308952091000130910101D9
:10233000F9013296205E3F4F9191891303C0DF016E
:1023400011971C92E217F307B9F7089581E090E026
:10235000E0910001F0910101E80FF91F1082019650
:1023600080329105A9F708959091C101892B80933E
:10237000C1010895982F90958091C1018923809380
:10238000C10108951092C10108959091C001892B57
:102390008093C0010895982F90958091C001892362
:1023A0008093C00108951092C00108959091BF01DB
:1023B000892B8093BF010895982F90958091BF013C
:1023C00089238093BF0108951092BF0108958093DF
:1023D0009E01089510929E01089520910001309170
:1023E0000101F9013196205E3F4F80E091919111FA
:1023F0008F5FE217F307D1F70895E0910001F091A4
:1024000001018091C1018083E0910001F0910101FF
:1024100080819091C001892B8083E0910001F0912F
:10242000010180819091BF01892B808390919E0151
:10243000992361F0E0910001F09101018081892BE5
:1024400080830E94ED11811110929E018091000104
:10245000909101010C9482066DEE7EEF90E080E099
:102460000E943B1F60E082E090E00E94291F60E034
:1024700083E090E00E94291F60E084E090E00E94E9
:10248000291F60E085E090E00C94291F90E080E037
:102490000E94231F21E08D3E9E4F09F020E0822FF5
:1024A000089582E090E00C941B1F682F82E090E07A
:1024B0000C94291F83E090E00C941B1F682F83E08D
:1024C00090E00C94291F84E090E00C941B1F682F6F
:1024D00084E090E00C94291F8091F901843039F157
:1024E0001092C30188E190E020E40FB6F894A8951B
:1024F000809360000FBE2093600080E00E94620322
:1025000083B7817F846083BF83B7816083BF789402
:10251000889583B78E7F83BF0FB6F894A895809176
:102520006000886180936000109260000FBE089583
:10253000089508950E9498120E94FC050E94991225
:1025400080E00E94670621E0892B09F420E0822FB9
:1025500008950E942E0B0E9476060C9462031F922F
:102560000F920FB60F9211248F939F93AF93BF9347
:102570008091C301811113C08091EF019091F0010E
:10258000A091F101B091F2014196A11DB11D80937E
:10259000EF019093F001A093F101B093F201BF918C
:1025A000AF919F918F910F900FBE0F901F90189534
:1025B00082E084BD93E095BD9AEF97BD80936E0055
:1025C00008952FB7F8948091EF019091F001A091B8
:1025D000F101B091F2012FBF0895CF92DF92EF92F7
:1025E000FF920F931F932FB7F8944091EF015091F2
:1025F000F0016091F1017091F2012FBF6A017B013E
:10260000EE24FF248C0130E020E0C016D106E20663
:10261000F30650F0481B590BCA011F910F91FF9010
:10262000EF90DF90CF90089541505109F3CF1F9262
:102630000F920FB60F9211248F939F93AF93BF9376
:102640008091EF019091F001A091F101B091F20120
:102650000196A11DB11D8093EF019093F001A0930D
:10266000F101B093F201BF91AF919F918F910F90C3
:102670000FBE0F901F9018950E94C11AF8942FEF6B
:1026800087EA91E6215080409040E1F700C00000C9
:1026900087E090EBDC018093020290930302A09309
:1026A0000402B093050288E19CE00FB6F894A89567
:1026B000809360000FBE90936000FFCFCF92DF92B7
:1026C000EF92FF920F931F93CF93DF93082F80E039
:1026D0000E9467067C01D0E0C0E0CC24C394D12CDA
:1026E00010E0C6010C2E02C0880F991F0A94E2F771
:1026F0008E219F21892B71F42196C930D10589F74C
:1027000080E0DF91CF911F910F91FF90EF90DF90CC
:10271000CF9008956C2F70E080E00E946503081749
:10272000190751F781E0EDCFCF93C82F8CE20E94BB
:102730005E13882321F08C2FCF910C945E1380E0E0
:10274000CF910895CF930E944612811102C00E943A
:102750002C12C5E608C00E94FC058FE39CE9019796
:10276000F1F700C00000C150B1F789E20E94941354
:102770008111EFC08AE20E94941381110E942C12F1
:1027800085E00E94941381110E943C130E94511213
:102790008093C20187E00E949413882371F08BE13B
:1027A0000E949413882309F4B1C09091C201892F2B
:1027B0008D7F91FF82608093C2018091C2010E944F
:1027C00055120E94631290E09093F4018093F301FC
:1027D00080EE0E949413882341F09091F301892F99
:1027E0008E7F90FF81608093F30189E30E949413B0
:1027F000882341F09091F301892F8D7F91FF8260B2
:102800008093F30182EE0E949413882341F090910B
:10281000F301892F8B7F92FF84608093F30186EE12
:102820000E949413882341F09091F301892F877FB0
:1028300093FF88608093F30183EE0E9494138823B2
:1028400041F09091F301892F8F7E94FF80618093F6
:10285000F30185E30E949413882341F09091F301E2
:10286000892F8F7D95FF80628093F30181E30E9421
:102870009413882341F09091F301892F8F7B96FF69
:1028800080648093F30181E10E949413882341F0D6
:102890009091F301892F97FB87F980588093F3017A
:1028A0008091F3010E94671287E20E949413C82F5F
:1028B0008EE10E9494138111C2608FE10E949413F3
:1028C0008111C46080E20E9494138111C86081E28A
:1028D0000E9494138111C06182E20E9494138111BD
:1028E000C06283E20E9494138111C06484E20E945A
:1028F0009413882341F1C0688C2F0E945E126C2FC4
:1029000070E090E080E0CF910C94020F8EE00E9486
:102910009413882339F09091C201892F8B7F92FF05
:10292000846049CF80E10E9494139091C201882372
:1029300029F0892F877F93FF88603DCF892F8E7F75
:1029400090FF816038CFC111D7CF0E945A12682FF3
:10295000D7CFCF9108958091C60180FF12C06091BA
:10296000050185E0689FB0011124759567957595FF
:10297000679560387105A8F561157105A1F1862F7D
:10298000089581FF09C06091050185E0689FB0014D
:10299000112475956795EDCF82FF07C06091050101
:1029A00085E0689FB0011124E4CF2091C701222364
:1029B000A9F0909104016091050185E0689FB00144
:1029C00011242917B0F6269FA001279F500D11242E
:1029D000692F70E0CA010E94ED1ECBCF65E070E068
:1029E000CECF8FE7089581E008958091C60180FFE2
:1029F0000CC06091030170E07595679575956795BA
:102A00006115710549F1862F089581FF06C0609117
:102A1000030170E075956795F3CF6091030182FD26
:102A20000BC09091C7019923A1F0609102018091A0
:102A30000301961738F0682F70E06038710500F3D5
:102A40008FE70895899FC001112470E00E94ED1E58
:102A5000F4CF61E070E0D7CF81E00895803F31F49A
:102A60000E94AB1481958093CA010895813F19F4A7
:102A70000E94AB14F8CF823F31F40E94AB148195D1
:102A80008093C9010895833F19F40E94AB14F8CFD5
:102A9000893F29F40E94F5148093CB0108958A3F61
:102AA00021F40E94F5148195F7CF8B3F31F40E94F9
:102AB000F51481958093CC0108958C3F19F40E9400
:102AC000F514F8CF843F31F48091C8018160809380
:102AD000C8010895853F21F48091C8018260F7CF35
:102AE000863F21F48091C8018460F1CF873F21F4B3
:102AF0008091C8018860EBCF883F21F48091C801A4
:102B00008061E5CF8D3F31F48091C6018160809373
:102B1000C60108958E3F21F48091C6018260F7CFEF
:102B20008F3FB9F78091C6018460F1CF803FC1F437
:102B30008091CA0187FD1092CA018091C90181115B
:102B40000EC08091CA0181110AC08091CB01811110
:102B500006C08091CC01811102C01092C701089576
:102B6000813F29F48091CA0118162CF3E6CF909189
:102B7000C901823F29F497FFE0CF1092C901DDCF50
:102B8000833F19F41916CCF3D8CF893F39F48091DB
:102B9000CB01181694F61092CB01CFCF8A3F29F4BF
:102BA0008091CB0187FFC9CFF6CF8B3F39F480915D
:102BB000CC0187FFC2CF1092CC01BFCF8C3F29F44C
:102BC0008091CC011816BCF3B8CF843F31F48091CA
:102BD000C8018E7F8093C801B0CF853F21F48091DA
:102BE000C8018D7FF7CF863F21F48091C8018B7F8C
:102BF000F1CF873F21F48091C801877FEBCF883FD9
:102C000021F48091C8018F7EE5CF8D3F31F4809112
:102C1000C6018E7F8093C60190CF8E3F21F48091B4
:102C2000C6018D7FF7CF8F3F09F087CF8091C60116
:102C30008B7FF0CF88EC91E00E948D060E94E1121C
:102C40009093C5018093C40108951F93CF93DF93A0
:102C50008091C4019091C5010E94ED12AC01909148
:102C6000C7012091060130E0911106C020910701B3
:102C70008AE0289F900111244217530780F0809129
:102C8000C901C091CA011091CB01D091CC01811131
:102C90000AC0C11178C0111176C0D11174C0DF9182
:102CA000CF911F9108959F3F19F09F5F9093C701A7
:102CB000181624F40E94AB148093C9018091C901B5
:102CC00087FF05C00E94AB1481958093C9011C1633
:102CD00024F40E94AB148093CA018091CA0187FF3B
:102CE00005C00E94AB1481958093CA016091C9010F
:102CF000662331F1C091CA01CC2311F1062E000CDC
:102D0000770B880B990B0E94F41D23E333E343E315
:102D10005FE30E94581E0E94BC1D6093C9016C2F86
:102D2000CC0F770B880B990B0E94F41D23E333E340
:102D300043E35FE30E94581E0E94BC1D6093CA01DA
:102D4000111624F40E94F5148093CB018091CB01DD
:102D500087FF05C00E94F51481958093CB011D1655
:102D600024F40E94F5148093CC018091CC0187FF5C
:102D700005C00E94F51481958093CC01DF91CF911D
:102D80001F910C941A169F3F09F08FCFA0CF85E0BA
:102D9000E8ECF1E0DF011D928A95E9F71092C70196
:102DA0001092C60108958091ED010895CF93DF93AD
:102DB00000D01F92CDB7DEB79C018091F90184301D
:102DC00019F593E099833B832A839093E9008FEF71
:102DD0009091E800815095FD06C095ED9A95F1F728
:102DE00000008111F5CF8091E80085FF0DC050E013
:102DF00040E063E070E0CE0101960E9431198091BD
:102E0000E8008E778093E8000F900F900F90DF918D
:102E1000CF910895CF93DF9300D01F92CDB7DEB747
:102E20002091F901243031F522E02983805891095D
:102E30009B838A8383E08093E9008FEF9091E80081
:102E4000815095FD06C095ED9A95F1F7000081112E
:102E5000F5CF8091E80085FF0DC050E040E063E0D1
:102E600070E0CE0101960E9431198091E8008E77C2
:102E70008093E8000F900F900F90DF91CF9108950D
:102E80009C018091F9018430F9F482E08093E9009B
:102E90009FEF8091E800915085FD06C085ED8A95F1
:102EA000F1F700009111F5CF8091E80085FF0CC08B
:102EB00050E040E065E070E0C9010E943119809166
:102EC000E8008E778093E8000895CF93DF93EC01BC
:102ED0008091F9018430F1F4909112019923E9F085
:102EE0009091F30197FF19C08093E9008FEF9091C3
:102EF000E800815095FD06C095E19A95F1F7000034
:102F00008111F5CF8091E80050E040E060E270E090
:102F100085FD1AC0DF91CF91089581E08093E9008B
:102F20008FEF9091E800815095FD06C095ED9A9540
:102F3000F1F700008111F5CF8091E80085FFEACF1D
:102F400050E040E068E070E0CE010E9431198091CD
:102F5000E8008E778093E80080E2FE01ADECB1E0FE
:102F600001900D928A95E1F7D5CF8091F8018111FA
:102F700009C00E94C11A0E941E1B8091E200846059
:102F80008093E20008951092F8010895089508953D
:102F90000C94A91242E061EC81E00E943F1A42E0E9
:102FA00061EC82E00E943F1A42E061EC83E00E9403
:102FB0003F1A42E261EC84E00C943F1A8091FB01DD
:102FC000833009F455C030F4813071F1823009F456
:102FD00091C008958A3009F47DC08B3009F463C034
:102FE000893009F044C08091FA01813209F03FC074
:102FF0008091FE019091FF01009711F00397B9F5C0
:103000008091E800877F8093E8008091E80082FF4C
:103010002AC08091F1008093ED018091E8008B77C8
:103020008093E8000C94731A8091FA01813AF9F4C4
:103030008091E800877F8093E8008091FE01909165
:10304000FF01892B61F460E28DEC91E070E00E9459
:1030500080198091E8008B778093E800089560E004
:1030600090E080E0F3CF8091F9018111CECF0895F7
:103070008091FA01813AD9F78091FE019091FF0188
:10308000892BA9F78091E800877F8093E8008091E1
:10309000E80080FFFCCF809112018093F1008091C5
:1030A000E8008E77BDCF8091FA01813201F78091DF
:1030B000FE019091FF01892BD1F68091E800877F76
:1030C0008093E8000E94731A8091FC0180931201A2
:1030D0000C942E0B8091FA01813249F68091E80020
:1030E000877F8093E8000E94731A8091FD0180938E
:1030F000EE0108958091FA01813A09F0B8CF8091EC
:10310000E800877F8093E8008091E80080FFFCCF93
:103110008091EE01C2CF84B7877F84BF0FB6F89449
:10312000A895809160008861809360001092600093
:103130000FBE80E880936100109261000E94C50676
:103140000E94C11A0E941E1B8091E200846080933D
:10315000E20078940E94A01D0E94C70688E091E0DA
:103160000E9471068091F901853019F00E94CD0608
:10317000F9CF0E946C128091F701882399F30E9485
:103180009A12882379F30E941B19ECCF292F332739
:103190002330310579F158F421303105F1F0223036
:1031A000310519F190E080E030E020E01AC02132D2
:1031B000310599F122323105A9F7643098F770E0B2
:1031C000FB01EE0FFF1FE05EFE4F20813181645E48
:1031D0007E4FFB01808190E004C082E190E029E60F
:1031E00032E0FA013183208308958DE690E02CEFE0
:1031F00031E0F7CF99278130910561F028F00297EF
:1032000089F6ECECF1E002C0E8EFF1E0849190E0A7
:103210009F01E7CFE0EEF1E0F9CF643008F0C2CFD4
:10322000E62FF0E0EE0FFF1FE85DFE4F20813181B9
:1032300089E090E0D6CF80E189BD82E189BD09B403
:1032400000FEFDCF8091D8008F7D8093D8008091C3
:10325000E00082608093E0008091E00081FDFCCF7F
:103260000895AF92BF92CF92DF92FF920F931F9378
:10327000CF93DF936C01EB018A010E94921AF82E22
:10328000811123C00115110539F0F8018081918168
:10329000C81BD90BC80ED91EB12CA12C2097A9F0A0
:1032A0008091E80085FD22C08091E8008E778093B0
:1032B000E80001151105A1F0F80180819181A80EA7
:1032C000B91EB182A08285E0F82E8F2DDF91CF91BB
:1032D0001F910F91FF90DF90CF90BF90AF90089516
:1032E0000E94921A8823D1F2F82EEFCFF601819135
:1032F0006F018093F1002197FFEFAF1ABF0ACECF85
:10330000FC01809100029091010286179707A0F0BE
:103310006115710529F49091E8009E779093E8007B
:1033200090E06115710551F4911108C08091E80099
:1033300082FF35C080E00895BC01F2CF8091F90191
:103340008823C9F18530C9F18091E80083FD31C03F
:103350008091E80082FDEACF8091E80080FFE1CF14
:103360002091F3008091F200322F282F6115710512
:1033700019F02830310558F091E02830310509F076
:1033800090E02091E8002E772093E800CACF819149
:103390008093F100615071092F5F3F4FE7CF80911B
:1033A000F901882341F0853041F08091E80083FFE6
:1033B000BDCF81E0089582E0089583E00895FC0187
:1033C000809100029091010286179707A0F0611585
:1033D000710529F48091E8008E778093E80090E0F1
:1033E0006115710551F4911108C08091E80082FFC8
:1033F00036C080E00895BC01F2CF8091F9018823A6
:10340000D1F18530D1F18091E80083FD32C0809107
:10341000E80082FDEACF8091E80080FFE1CF2091B3
:10342000F3008091F200322F282F6115710519F0F9
:103430002830310558F091E02830310509F090E04E
:103440008091E8008E778093E800CACF84918093C2
:10345000F1003196615071092F5F3F4FE6CF8091A7
:10346000F901882341F0853041F08091E80083FF25
:10347000BCCF81E0089582E0089583E00895982FFD
:10348000973028F08F708093E90081E00895909341
:10349000E900242F762F50E0981731F07091EC005E
:1034A0002091ED005091F00021FD02C09F5FE8CF18
:1034B0003091EB003E7F3093EB003091ED003D7F8B
:1034C0003093ED003091EB0031603093EB0070935E
:1034D000EC002093ED005093F0002091EE0027FDCA
:1034E000E5CF80E008958091FA0187FF13C08091B5
:1034F000E80082FF06C08091E8008B778093E800A7
:1035000004C08091F9018111F2CF08958091F901F1
:103510008823D9F38091E80080FFF8CF8091E800FC
:103520008E77ECCF2091E4003091E50085E6909114
:10353000EC0090FF06C09091E80090FF06C080E08C
:1035400008959091E80092FDFACF9091F9019923A6
:1035500091F0953091F09091EB0095FD10C0409165
:10356000E4005091E5002417350709F381509A01D2
:10357000F1F684E0089582E0089583E0089581E003
:1035800008950E942F1B0E94371BE0EEF0E080811F
:1035900081608083E8EDF0E080818F77808319BCC3
:1035A000A7EDB0E08C918E7F8C9380818F7E80839D
:1035B0001092F80108950F931F93CF93DF930E9409
:1035C0002F1B0E94371BC8EDD0E088818F7788833E
:1035D00088818068888388818F7D888319BC109258
:1035E000F9011092F5011092F7011092F60100EE28
:1035F00010E0F80180818B7F8083888181608883DF
:1036000042E060E080E00E943F1AE1EEF0E080815D
:103610008E7F8083E2EEF0E0808181608083808114
:1036200088608083F80180818E7F808388818061BB
:103630008883DF91CF911F910F910895E8EDF0E01D
:1036400080818F7E8083E7EDF0E0808181608083E0
:1036500084E082BF81E08093F8010C94DB1AE8EDEE
:10366000F0E080818E7F80831092E20008951092B6
:10367000DA001092E10008951F920F920FB60F9298
:1036800011242F933F934F935F936F937F938F9367
:103690009F93AF93BF93EF93FF938091E10082FFDD
:1036A0000BC08091E20082FF07C08091E1008B7F18
:1036B0008093E1000E949F1D8091DA0080FF19C075
:1036C0008091D80080FF15C08091DA008E7F8093B2
:1036D000DA008091D90080FF94C080E189BD82E149
:1036E00089BD09B400FEFDCF81E08093F9010E94FD
:1036F000B5178091E10080FF19C08091E20080FF42
:1037000015C08091E2008E7F8093E2008091E200FC
:1037100080618093E2008091D80080628093D8001D
:1037200019BC85E08093F9010E94C7178091E100E0
:1037300084FF29C08091E20084FF25C080E189BD1B
:1037400082E189BD09B400FEFDCF8091D8008F7D54
:103750008093D8008091E1008F7E8093E10080917A
:10376000E2008F7E8093E2008091E200816080938E
:10377000E2008091F501882309F449C084E0809338
:10378000F9010E94C8178091E10083FF29C0809150
:10379000E20083FF25C08091E100877F8093E100F4
:1037A00082E08093F9011092F5018091E1008E7F13
:1037B0008093E1008091E2008E7F8093E20080910F
:1037C000E20080618093E20042E060E080E00E94DD
:1037D0003F1A8091F00088608093F0000E94C61725
:1037E000FF91EF91BF91AF919F918F917F916F91D9
:1037F0005F914F913F912F910F900FBE0F901F90AF
:10380000189519BC1092F9010E94C31772CF8091CC
:10381000E30087FD02C081E0B2CF83E0B0CF1F920A
:103820000F920FB60F9211242F933F934F935F93F4
:103830006F937F938F939F93AF93BF93CF93EF93A8
:10384000FF93C091E900CF708091EC001092E900E5
:103850008091F000877F8093F00078940E944B1C49
:103860001092E9008091F00088608093F000C0938E
:10387000E900FF91EF91CF91BF91AF919F918F910F
:103880007F916F915F914F913F912F910F900FBE5C
:103890000F901F9018951F93CF93DF93CDB7DEB78E
:1038A000AA970FB6F894DEBF0FBECDBFEAEFF1E0E6
:1038B0008091F100819322E0E230F207C9F70E9483
:1038C000DE178091E80083FF42C08091FA01909159
:1038D000FB019A3008F03BC0E92FF0E0EE58F34EC0
:1038E0000C94011F7C1CA01CA71CA01CA71CFB1C6B
:1038F0001D1DA71C721D7F1D803879F0823839F597
:103900008091FE018F708093E9008091EB0085FB30
:10391000882780F91092E90006C08091F601909105
:10392000F701911182609091E800977F9093E800F1
:103930008093F1001092F1008091E8008E772DC005
:10394000282F2D7F21F48823D1F0823059F18091E6
:10395000E80083FF0AC08091E800877F8093E80039
:103960008091EB0080628093EB00AA960FB6F894EA
:10397000DEBF0FBECDBFDF91CF911F910895809123
:10398000FC01813021F7933009F080E08093F7014A
:103990001092E9008091E800877F8093E8000E9400
:1039A000731AD5CF8091FC018111F2CF8091FE0175
:1039B0008F7069F28093E9002091EB0020FFE8CF3F
:1039C000933031F48091EB0080628093EB00E0CF84
:1039D0009091EB0090619093EB0021E030E001C00A
:1039E000220F8A95EAF72093EA001092EA0080916C
:1039F000EB008860EACF8111AACF1091FC011F77FC
:103A00008091E3008078812B8093E3008091E8002F
:103A1000877F8093E8000E94731A8091E80080FFFE
:103A2000FCCF8091E30080688093E30083E0111174
:103A300001C082E08093F9018ACF8058823008F07B
:103A400086CF8091FC019091FD018C3D23E092078F
:103A5000A1F583E08A838AE289834FB7F894DE0177
:103A6000139620E03EE051E2E32FF0E05093570040
:103A7000E49120FF03C0E295EF703F5FEF708E2F5F
:103A800090E0EA30C0F0C7968D939D932F5F24316C
:103A900059F74FBF8091E800877F8093E8006AE282
:103AA00070E0CE0101960E9480198091E8008B772A
:103AB0008093E8004CCFC096E7CFAE014F5F5F4FD9
:103AC0006091FE010E94C618BC01892B09F43FCF0A
:103AD0009091E800977F9093E80089819A810E94F5
:103AE000DF19E3CF803809F032CF8091E800877F7B
:103AF0008093E8008091F5018093F1001DCF811142
:103B000026CF9091FC01923008F021CF8091E800FF
:103B1000877F8093E8009093F5010E94731A80914B
:103B2000F501882331F084E08093F9010E94CA17DF
:103B30000ECF8091E30087FDF6CF81E0F5CF0895A9
:103B4000CF938091F901882399F0C091E900CF705B
:103B50008091EC0080FD0EC080E0C82B1092E9003F
:103B60008091E80083FD0E944B1CCF70C093E90058
:103B7000CF91089580E8F1CF0E94C31D6894B111E0
:103B80000C94521E08950E94371E88F09F5798F09B
:103B9000B92F9927B751B0F0E1F0660F771F881F52
:103BA000991F1AF0BA95C9F714C0B13091F00E946C
:103BB000511EB1E008950C94511E672F782F88276D
:103BC000B85F39F0B93FCCF3869577956795B39593
:103BD000D9F73EF490958095709561957F4F8F4F02
:103BE0009F4F0895E89409C097FB3EF49095809507
:103BF000709561957F4F8F4F9F4F9923A9F0F92FB3
:103C000096E9BB279395F695879577956795B79530
:103C1000F111F8CFFAF4BB0F11F460FF1BC06F5F16
:103C20007F4F8F4F9F4F16C0882311F096E911C028
:103C3000772321F09EE8872F762F05C0662371F049
:103C400096E8862F70E060E02AF09A95660F771F5D
:103C5000881FDAF7880F9695879597F9089557FD8D
:103C60009058440F551F59F05F3F71F04795880FEA
:103C700097FB991F61F09F3F79F087950895121681
:103C800013061406551FF2CF4695F1DF08C016162D
:103C900017061806991FF1CF8695710561050894DE
:103CA0000895E894BB2766277727CB0197F90895F5
:103CB0000E946B1E0C94DC1E0E94CE1E38F00E94E7
:103CC000D51E20F0952311F00C94C51E0C94CB1E2C
:103CD00011240C94521E0E942F1E70F3959FC1F365
:103CE000950F50E0551F629FF001729FBB27F00DAA
:103CF000B11D639FAA27F00DB11DAA1F649F6627FF
:103D0000B00DA11D661F829F2227B00DA11D621F4D
:103D1000739FB00DA11D621F839FA00D611D221F07
:103D2000749F3327A00D611D231F849F600D211DEB
:103D3000822F762F6A2F11249F5750409AF0F1F06E
:103D400088234AF0EE0FFF1FBB1F661F771F881FD7
:103D500091505040A9F79E3F510580F00C94C51E2C
:103D60000C94521E5F3FE4F3983ED4F3869577950A
:103D70006795B795F795E7959F5FC1F7FE2B880F7D
:103D8000911D9695879597F9089597F99F6780E813
:103D900070E060E008959FEF80EC089500240A949D
:103DA0001616170618060906089500240A94121616
:103DB0001306140605060895092E0394000C11F449
:103DC000882352F0BB0F40F4BF2B11F460FF04C0F6
:103DD0006F5F7F4F8F4F9F4F089597FB072E16F40D
:103DE000009407D077FD09D00E94071F07FC05D07B
:103DF0003EF4909581959F4F0895709561957F4F02
:103E00000895EE0FFF1F0590F491E02D0994AA1B71
:103E1000BB1B51E107C0AA1FBB1FA617B70710F0B5
:103E2000A61BB70B881F991F5A95A9F780959095E7
:103E3000BC01CD010895F999FECF92BD81BDF89ADC
:103E4000992780B50895A8E1B0E042E050E00C94D5
:103E5000431F262FF999FECF92BD81BDF89A019795
:103E600000B4021639F01FBA20BD0FB6F894FA9AC2
:103E7000F99A0FBE08950196272F0E942A1F0C94CD
:103E8000291FDC01CB01FC01F999FECF06C0F2BD70
:103E9000E1BDF89A319600B40D9241505040B8F708
:063EA0000895F894FFCF25
:103EA6009F012808140A321ED316651740170A17F1
:103EB600D61601F5F6F7976694903191404D36394E
:103EC6003703EA02B4027B020E02270240025902BD
:00000001FF
